{
  "_format": "hh-sol-artifact-1",
  "contractName": "Token",
  "sourceName": "contracts/Token.sol",
  "abi": [
    {
      "inputs": [
        {
          "internalType": "uint256",
          "name": "initialSupply",
          "type": "uint256"
        }
      ],
      "stateMutability": "nonpayable",
      "type": "constructor"
    },
    {
      "inputs": [
        {
          "internalType": "address",
          "name": "spender",
          "type": "address"
        },
        {
          "internalType": "uint256",
          "name": "allowance",
          "type": "uint256"
        },
        {
          "internalType": "uint256",
          "name": "needed",
          "type": "uint256"
        }
      ],
      "name": "ERC20InsufficientAllowance",
      "type": "error"
    },
    {
      "inputs": [
        {
          "internalType": "address",
          "name": "sender",
          "type": "address"
        },
        {
          "internalType": "uint256",
          "name": "balance",
          "type": "uint256"
        },
        {
          "internalType": "uint256",
          "name": "needed",
          "type": "uint256"
        }
      ],
      "name": "ERC20InsufficientBalance",
      "type": "error"
    },
    {
      "inputs": [
        {
          "internalType": "address",
          "name": "approver",
          "type": "address"
        }
      ],
      "name": "ERC20InvalidApprover",
      "type": "error"
    },
    {
      "inputs": [
        {
          "internalType": "address",
          "name": "receiver",
          "type": "address"
        }
      ],
      "name": "ERC20InvalidReceiver",
      "type": "error"
    },
    {
      "inputs": [
        {
          "internalType": "address",
          "name": "sender",
          "type": "address"
        }
      ],
      "name": "ERC20InvalidSender",
      "type": "error"
    },
    {
      "inputs": [
        {
          "internalType": "address",
          "name": "spender",
          "type": "address"
        }
      ],
      "name": "ERC20InvalidSpender",
      "type": "error"
    },
    {
      "inputs": [],
      "name": "EnforcedPause",
      "type": "error"
    },
    {
      "inputs": [],
      "name": "ExpectedPause",
      "type": "error"
    },
    {
      "inputs": [
        {
          "internalType": "address",
          "name": "owner",
          "type": "address"
        }
      ],
      "name": "OwnableInvalidOwner",
      "type": "error"
    },
    {
      "inputs": [
        {
          "internalType": "address",
          "name": "account",
          "type": "address"
        }
      ],
      "name": "OwnableUnauthorizedAccount",
      "type": "error"
    },
    {
      "anonymous": false,
      "inputs": [
        {
          "indexed": true,
          "internalType": "address",
          "name": "owner",
          "type": "address"
        },
        {
          "indexed": true,
          "internalType": "address",
          "name": "spender",
          "type": "address"
        },
        {
          "indexed": false,
          "internalType": "uint256",
          "name": "value",
          "type": "uint256"
        }
      ],
      "name": "Approval",
      "type": "event"
    },
    {
      "anonymous": false,
      "inputs": [
        {
          "indexed": true,
          "internalType": "address",
          "name": "previousOwner",
          "type": "address"
        },
        {
          "indexed": true,
          "internalType": "address",
          "name": "newOwner",
          "type": "address"
        }
      ],
      "name": "OwnershipTransferred",
      "type": "event"
    },
    {
      "anonymous": false,
      "inputs": [
        {
          "indexed": false,
          "internalType": "address",
          "name": "account",
          "type": "address"
        }
      ],
      "name": "Paused",
      "type": "event"
    },
    {
      "anonymous": false,
      "inputs": [
        {
          "indexed": true,
          "internalType": "address",
          "name": "from",
          "type": "address"
        },
        {
          "indexed": true,
          "internalType": "address",
          "name": "to",
          "type": "address"
        },
        {
          "indexed": false,
          "internalType": "uint256",
          "name": "value",
          "type": "uint256"
        }
      ],
      "name": "Transfer",
      "type": "event"
    },
    {
      "anonymous": false,
      "inputs": [
        {
          "indexed": false,
          "internalType": "address",
          "name": "account",
          "type": "address"
        }
      ],
      "name": "Unpaused",
      "type": "event"
    },
    {
      "inputs": [
        {
          "internalType": "address",
          "name": "owner",
          "type": "address"
        },
        {
          "internalType": "address",
          "name": "spender",
          "type": "address"
        }
      ],
      "name": "allowance",
      "outputs": [
        {
          "internalType": "uint256",
          "name": "",
          "type": "uint256"
        }
      ],
      "stateMutability": "view",
      "type": "function"
    },
    {
      "inputs": [
        {
          "internalType": "address",
          "name": "spender",
          "type": "address"
        },
        {
          "internalType": "uint256",
          "name": "value",
          "type": "uint256"
        }
      ],
      "name": "approve",
      "outputs": [
        {
          "internalType": "bool",
          "name": "",
          "type": "bool"
        }
      ],
      "stateMutability": "nonpayable",
      "type": "function"
    },
    {
      "inputs": [
        {
          "internalType": "address",
          "name": "account",
          "type": "address"
        }
      ],
      "name": "balanceOf",
      "outputs": [
        {
          "internalType": "uint256",
          "name": "",
          "type": "uint256"
        }
      ],
      "stateMutability": "view",
      "type": "function"
    },
    {
      "inputs": [
        {
          "internalType": "uint256",
          "name": "amount",
          "type": "uint256"
        }
      ],
      "name": "burn",
      "outputs": [],
      "stateMutability": "nonpayable",
      "type": "function"
    },
    {
      "inputs": [
        {
          "internalType": "address",
          "name": "account",
          "type": "address"
        },
        {
          "internalType": "uint256",
          "name": "value",
          "type": "uint256"
        }
      ],
      "name": "burnFrom",
      "outputs": [],
      "stateMutability": "nonpayable",
      "type": "function"
    },
    {
      "inputs": [],
      "name": "canBurn",
      "outputs": [
        {
          "internalType": "bool",
          "name": "",
          "type": "bool"
        }
      ],
      "stateMutability": "view",
      "type": "function"
    },
    {
      "inputs": [],
      "name": "canMint",
      "outputs": [
        {
          "internalType": "bool",
          "name": "",
          "type": "bool"
        }
      ],
      "stateMutability": "view",
      "type": "function"
    },
    {
      "inputs": [],
      "name": "canPause",
      "outputs": [
        {
          "internalType": "bool",
          "name": "",
          "type": "bool"
        }
      ],
      "stateMutability": "view",
      "type": "function"
    },
    {
      "inputs": [],
      "name": "decimals",
      "outputs": [
        {
          "internalType": "uint8",
          "name": "",
          "type": "uint8"
        }
      ],
      "stateMutability": "view",
      "type": "function"
    },
    {
      "inputs": [
        {
          "internalType": "address",
          "name": "to",
          "type": "address"
        },
        {
          "internalType": "uint256",
          "name": "amount",
          "type": "uint256"
        }
      ],
      "name": "mint",
      "outputs": [],
      "stateMutability": "nonpayable",
      "type": "function"
    },
    {
      "inputs": [],
      "name": "name",
      "outputs": [
        {
          "internalType": "string",
          "name": "",
          "type": "string"
        }
      ],
      "stateMutability": "view",
      "type": "function"
    },
    {
      "inputs": [],
      "name": "owner",
      "outputs": [
        {
          "internalType": "address",
          "name": "",
          "type": "address"
        }
      ],
      "stateMutability": "view",
      "type": "function"
    },
    {
      "inputs": [],
      "name": "pause",
      "outputs": [],
      "stateMutability": "nonpayable",
      "type": "function"
    },
    {
      "inputs": [],
      "name": "paused",
      "outputs": [
        {
          "internalType": "bool",
          "name": "",
          "type": "bool"
        }
      ],
      "stateMutability": "view",
      "type": "function"
    },
    {
      "inputs": [],
      "name": "renounceOwnership",
      "outputs": [],
      "stateMutability": "nonpayable",
      "type": "function"
    },
    {
      "inputs": [],
      "name": "symbol",
      "outputs": [
        {
          "internalType": "string",
          "name": "",
          "type": "string"
        }
      ],
      "stateMutability": "view",
      "type": "function"
    },
    {
      "inputs": [],
      "name": "totalSupply",
      "outputs": [
        {
          "internalType": "uint256",
          "name": "",
          "type": "uint256"
        }
      ],
      "stateMutability": "view",
      "type": "function"
    },
    {
      "inputs": [
        {
          "internalType": "address",
          "name": "to",
          "type": "address"
        },
        {
          "internalType": "uint256",
          "name": "value",
          "type": "uint256"
        }
      ],
      "name": "transfer",
      "outputs": [
        {
          "internalType": "bool",
          "name": "",
          "type": "bool"
        }
      ],
      "stateMutability": "nonpayable",
      "type": "function"
    },
    {
      "inputs": [
        {
          "internalType": "address",
          "name": "from",
          "type": "address"
        },
        {
          "internalType": "address",
          "name": "to",
          "type": "address"
        },
        {
          "internalType": "uint256",
          "name": "value",
          "type": "uint256"
        }
      ],
      "name": "transferFrom",
      "outputs": [
        {
          "internalType": "bool",
          "name": "",
          "type": "bool"
        }
      ],
      "stateMutability": "nonpayable",
      "type": "function"
    },
    {
      "inputs": [
        {
          "internalType": "address",
          "name": "newOwner",
          "type": "address"
        }
      ],
      "name": "transferOwnership",
      "outputs": [],
      "stateMutability": "nonpayable",
      "type": "function"
    },
    {
      "inputs": [],
      "name": "unpause",
      "outputs": [],
      "stateMutability": "nonpayable",
      "type": "function"
    }
  ],
  "bytecode": "0x60806040523480156200001157600080fd5b50604051620023743803806200237483398181016040528101906200003791906200061f565b336040518060400160405280600981526020017f54657374546f6b656e00000000000000000000000000000000000000000000008152506040518060400160405280600381526020017f54544b00000000000000000000000000000000000000000000000000000000008152508160039081620000b59190620008c1565b508060049081620000c79190620008c1565b505050600073ffffffffffffffffffffffffffffffffffffffff168173ffffffffffffffffffffffffffffffffffffffff16036200013f5760006040517f1e4fbdf7000000000000000000000000000000000000000000000000000000008152600401620001369190620009ed565b60405180910390fd5b6200015081620001bb60201b60201c565b506000600560156101000a81548160ff0219169083151502179055506000600560166101000a81548160ff0219169083151502179055506000600560176101000a81548160ff021916908315150217905550620001b433826200028160201b60201c565b5062000adf565b6000600560019054906101000a900473ffffffffffffffffffffffffffffffffffffffff16905081600560016101000a81548173ffffffffffffffffffffffffffffffffffffffff021916908373ffffffffffffffffffffffffffffffffffffffff1602179055508173ffffffffffffffffffffffffffffffffffffffff168173ffffffffffffffffffffffffffffffffffffffff167f8be0079c531659141344cd1fd0a4f28419497f9722a3daafe3b4186f6b6457e060405160405180910390a35050565b600073ffffffffffffffffffffffffffffffffffffffff168273ffffffffffffffffffffffffffffffffffffffff1603620002f65760006040517fec442f05000000000000000000000000000000000000000000000000000000008152600401620002ed9190620009ed565b60405180910390fd5b6200030a600083836200030e60201b60201c565b5050565b620003218383836200032660201b60201c565b505050565b620003366200034e60201b60201c565b620003498383836200039860201b60201c565b505050565b6200035e620005c860201b60201c565b1562000396576040517fd93c066500000000000000000000000000000000000000000000000000000000815260040160405180910390fd5b565b600073ffffffffffffffffffffffffffffffffffffffff168373ffffffffffffffffffffffffffffffffffffffff1603620003ee578060026000828254620003e1919062000a39565b92505081905550620004c4565b60008060008573ffffffffffffffffffffffffffffffffffffffff1673ffffffffffffffffffffffffffffffffffffffff168152602001908152602001600020549050818110156200047d578381836040517fe450d38c000000000000000000000000000000000000000000000000000000008152600401620004749392919062000a85565b60405180910390fd5b8181036000808673ffffffffffffffffffffffffffffffffffffffff1673ffffffffffffffffffffffffffffffffffffffff16815260200190815260200160002081905550505b600073ffffffffffffffffffffffffffffffffffffffff168273ffffffffffffffffffffffffffffffffffffffff16036200050f57806002600082825403925050819055506200055c565b806000808473ffffffffffffffffffffffffffffffffffffffff1673ffffffffffffffffffffffffffffffffffffffff168152602001908152602001600020600082825401925050819055505b8173ffffffffffffffffffffffffffffffffffffffff168373ffffffffffffffffffffffffffffffffffffffff167fddf252ad1be2c89b69c2b068fc378daa952ba7f163c4a11628f55a4df523b3ef83604051620005bb919062000ac2565b60405180910390a3505050565b6000600560009054906101000a900460ff16905090565b600080fd5b6000819050919050565b620005f981620005e4565b81146200060557600080fd5b50565b6000815190506200061981620005ee565b92915050565b600060208284031215620006385762000637620005df565b5b6000620006488482850162000608565b91505092915050565b600081519050919050565b7f4e487b7100000000000000000000000000000000000000000000000000000000600052604160045260246000fd5b7f4e487b7100000000000000000000000000000000000000000000000000000000600052602260045260246000fd5b60006002820490506001821680620006d357607f821691505b602082108103620006e957620006e86200068b565b5b50919050565b60008190508160005260206000209050919050565b60006020601f8301049050919050565b600082821b905092915050565b600060088302620007537fffffffffffffffffffffffffffffffffffffffffffffffffffffffffffffffff8262000714565b6200075f868362000714565b95508019841693508086168417925050509392505050565b6000819050919050565b6000620007a26200079c6200079684620005e4565b62000777565b620005e4565b9050919050565b6000819050919050565b620007be8362000781565b620007d6620007cd82620007a9565b84845462000721565b825550505050565b600090565b620007ed620007de565b620007fa818484620007b3565b505050565b5b81811015620008225762000816600082620007e3565b60018101905062000800565b5050565b601f82111562000871576200083b81620006ef565b620008468462000704565b8101602085101562000856578190505b6200086e620008658562000704565b830182620007ff565b50505b505050565b600082821c905092915050565b6000620008966000198460080262000876565b1980831691505092915050565b6000620008b1838362000883565b9150826002028217905092915050565b620008cc8262000651565b67ffffffffffffffff811115620008e857620008e76200065c565b5b620008f48254620006ba565b6200090182828562000826565b600060209050601f83116001811462000939576000841562000924578287015190505b620009308582620008a3565b865550620009a0565b601f1984166200094986620006ef565b60005b8281101562000973578489015182556001820191506020850194506020810190506200094c565b868310156200099357848901516200098f601f89168262000883565b8355505b6001600288020188555050505b505050505050565b600073ffffffffffffffffffffffffffffffffffffffff82169050919050565b6000620009d582620009a8565b9050919050565b620009e781620009c8565b82525050565b600060208201905062000a046000830184620009dc565b92915050565b7f4e487b7100000000000000000000000000000000000000000000000000000000600052601160045260246000fd5b600062000a4682620005e4565b915062000a5383620005e4565b925082820190508082111562000a6e5762000a6d62000a0a565b5b92915050565b62000a7f81620005e4565b82525050565b600060608201905062000a9c6000830186620009dc565b62000aab602083018562000a74565b62000aba604083018462000a74565b949350505050565b600060208201905062000ad9600083018462000a74565b92915050565b6118858062000aef6000396000f3fe608060405234801561001057600080fd5b50600436106101375760003560e01c806370a08231116100b857806395d89b411161007c57806395d89b41146102f2578063a9059cbb14610310578063beb9716d14610340578063c1eb18401461035e578063dd62ed3e1461037c578063f2fde38b146103ac57610137565b806370a0823114610274578063715018a6146102a457806379cc6790146102ae5780638456cb59146102ca5780638da5cb5b146102d457610137565b8063323be1c5116100ff578063323be1c5146101f65780633f4ba83a1461021457806340c10f191461021e57806342966c681461023a5780635c975abb1461025657610137565b806306fdde031461013c578063095ea7b31461015a57806318160ddd1461018a57806323b872dd146101a8578063313ce567146101d8575b600080fd5b6101446103c8565b60405161015191906112fc565b60405180910390f35b610174600480360381019061016f91906113b7565b61045a565b6040516101819190611412565b60405180910390f35b61019261047d565b60405161019f919061143c565b60405180910390f35b6101c260048036038101906101bd9190611457565b610487565b6040516101cf9190611412565b60405180910390f35b6101e06104b6565b6040516101ed91906114c6565b60405180910390f35b6101fe6104bf565b60405161020b9190611412565b60405180910390f35b61021c6104d2565b005b610238600480360381019061023391906113b7565b610533565b005b610254600480360381019061024f91906114e1565b610598565b005b61025e6105f3565b60405161026b9190611412565b60405180910390f35b61028e6004803603810190610289919061150e565b61060a565b60405161029b919061143c565b60405180910390f35b6102ac610652565b005b6102c860048036038101906102c391906113b7565b610666565b005b6102d2610686565b005b6102dc6106e7565b6040516102e9919061154a565b60405180910390f35b6102fa610711565b60405161030791906112fc565b60405180910390f35b61032a600480360381019061032591906113b7565b6107a3565b6040516103379190611412565b60405180910390f35b6103486107c6565b6040516103559190611412565b60405180910390f35b6103666107d9565b6040516103739190611412565b60405180910390f35b61039660048036038101906103919190611565565b6107ec565b6040516103a3919061143c565b60405180910390f35b6103c660048036038101906103c1919061150e565b610873565b005b6060600380546103d7906115d4565b80601f0160208091040260200160405190810160405280929190818152602001828054610403906115d4565b80156104505780601f1061042557610100808354040283529160200191610450565b820191906000526020600020905b81548152906001019060200180831161043357829003601f168201915b5050505050905090565b6000806104656108f9565b9050610472818585610901565b600191505092915050565b6000600254905090565b6000806104926108f9565b905061049f858285610913565b6104aa8585856109a8565b60019150509392505050565b60006012905090565b600560169054906101000a900460ff1681565b6104da610a9c565b600560169054906101000a900460ff16610529576040517f08c379a000000000000000000000000000000000000000000000000000000000815260040161052090611651565b60405180910390fd5b610531610b23565b565b61053b610a9c565b600560159054906101000a900460ff1661058a576040517f08c379a0000000000000000000000000000000000000000000000000000000008152600401610581906116bd565b60405180910390fd5b6105948282610b86565b5050565b600560179054906101000a900460ff166105e7576040517f08c379a00000000000000000000000000000000000000000000000000000000081526004016105de90611729565b60405180910390fd5b6105f081610c08565b50565b6000600560009054906101000a900460ff16905090565b60008060008373ffffffffffffffffffffffffffffffffffffffff1673ffffffffffffffffffffffffffffffffffffffff168152602001908152602001600020549050919050565b61065a610a9c565b6106646000610c1c565b565b610678826106726108f9565b83610913565b6106828282610ce2565b5050565b61068e610a9c565b600560169054906101000a900460ff166106dd576040517f08c379a00000000000000000000000000000000000000000000000000000000081526004016106d490611795565b60405180910390fd5b6106e5610d64565b565b6000600560019054906101000a900473ffffffffffffffffffffffffffffffffffffffff16905090565b606060048054610720906115d4565b80601f016020809104026020016040519081016040528092919081815260200182805461074c906115d4565b80156107995780601f1061076e57610100808354040283529160200191610799565b820191906000526020600020905b81548152906001019060200180831161077c57829003601f168201915b5050505050905090565b6000806107ae6108f9565b90506107bb8185856109a8565b600191505092915050565b600560159054906101000a900460ff1681565b600560179054906101000a900460ff1681565b6000600160008473ffffffffffffffffffffffffffffffffffffffff1673ffffffffffffffffffffffffffffffffffffffff16815260200190815260200160002060008373ffffffffffffffffffffffffffffffffffffffff1673ffffffffffffffffffffffffffffffffffffffff16815260200190815260200160002054905092915050565b61087b610a9c565b600073ffffffffffffffffffffffffffffffffffffffff168173ffffffffffffffffffffffffffffffffffffffff16036108ed5760006040517f1e4fbdf70000000000000000000000000000000000000000000000000000000081526004016108e4919061154a565b60405180910390fd5b6108f681610c1c565b50565b600033905090565b61090e8383836001610dc7565b505050565b600061091f84846107ec565b90507fffffffffffffffffffffffffffffffffffffffffffffffffffffffffffffffff8110156109a25781811015610992578281836040517ffb8f41b2000000000000000000000000000000000000000000000000000000008152600401610989939291906117b5565b60405180910390fd5b6109a184848484036000610dc7565b5b50505050565b600073ffffffffffffffffffffffffffffffffffffffff168373ffffffffffffffffffffffffffffffffffffffff1603610a1a5760006040517f96c6fd1e000000000000000000000000000000000000000000000000000000008152600401610a11919061154a565b60405180910390fd5b600073ffffffffffffffffffffffffffffffffffffffff168273ffffffffffffffffffffffffffffffffffffffff1603610a8c5760006040517fec442f05000000000000000000000000000000000000000000000000000000008152600401610a83919061154a565b60405180910390fd5b610a97838383610f9e565b505050565b610aa46108f9565b73ffffffffffffffffffffffffffffffffffffffff16610ac26106e7565b73ffffffffffffffffffffffffffffffffffffffff1614610b2157610ae56108f9565b6040517f118cdaa7000000000000000000000000000000000000000000000000000000008152600401610b18919061154a565b60405180910390fd5b565b610b2b610fae565b6000600560006101000a81548160ff0219169083151502179055507f5db9ee0a495bf2e6ff9c91a7834c1ba4fdd244a5e8aa4e537bd38aeae4b073aa610b6f6108f9565b604051610b7c919061154a565b60405180910390a1565b600073ffffffffffffffffffffffffffffffffffffffff168273ffffffffffffffffffffffffffffffffffffffff1603610bf85760006040517fec442f05000000000000000000000000000000000000000000000000000000008152600401610bef919061154a565b60405180910390fd5b610c0460008383610f9e565b5050565b610c19610c136108f9565b82610ce2565b50565b6000600560019054906101000a900473ffffffffffffffffffffffffffffffffffffffff16905081600560016101000a81548173ffffffffffffffffffffffffffffffffffffffff021916908373ffffffffffffffffffffffffffffffffffffffff1602179055508173ffffffffffffffffffffffffffffffffffffffff168173ffffffffffffffffffffffffffffffffffffffff167f8be0079c531659141344cd1fd0a4f28419497f9722a3daafe3b4186f6b6457e060405160405180910390a35050565b600073ffffffffffffffffffffffffffffffffffffffff168273ffffffffffffffffffffffffffffffffffffffff1603610d545760006040517f96c6fd1e000000000000000000000000000000000000000000000000000000008152600401610d4b919061154a565b60405180910390fd5b610d6082600083610f9e565b5050565b610d6c610fee565b6001600560006101000a81548160ff0219169083151502179055507f62e78cea01bee320cd4e420270b5ea74000d11b0c9f74754ebdbfc544b05a258610db06108f9565b604051610dbd919061154a565b60405180910390a1565b600073ffffffffffffffffffffffffffffffffffffffff168473ffffffffffffffffffffffffffffffffffffffff1603610e395760006040517fe602df05000000000000000000000000000000000000000000000000000000008152600401610e30919061154a565b60405180910390fd5b600073ffffffffffffffffffffffffffffffffffffffff168373ffffffffffffffffffffffffffffffffffffffff1603610eab5760006040517f94280d62000000000000000000000000000000000000000000000000000000008152600401610ea2919061154a565b60405180910390fd5b81600160008673ffffffffffffffffffffffffffffffffffffffff1673ffffffffffffffffffffffffffffffffffffffff16815260200190815260200160002060008573ffffffffffffffffffffffffffffffffffffffff1673ffffffffffffffffffffffffffffffffffffffff168152602001908152602001600020819055508015610f98578273ffffffffffffffffffffffffffffffffffffffff168473ffffffffffffffffffffffffffffffffffffffff167f8c5be1e5ebec7d5bd14f71427d1e84f3dd0314c0f7b2291e5b200ac8c7c3b92584604051610f8f919061143c565b60405180910390a35b50505050565b610fa983838361102f565b505050565b610fb66105f3565b610fec576040517f8dfc202b00000000000000000000000000000000000000000000000000000000815260040160405180910390fd5b565b610ff66105f3565b1561102d576040517fd93c066500000000000000000000000000000000000000000000000000000000815260040160405180910390fd5b565b611037610fee565b611042838383611047565b505050565b600073ffffffffffffffffffffffffffffffffffffffff168373ffffffffffffffffffffffffffffffffffffffff160361109957806002600082825461108d919061181b565b9250508190555061116c565b60008060008573ffffffffffffffffffffffffffffffffffffffff1673ffffffffffffffffffffffffffffffffffffffff16815260200190815260200160002054905081811015611125578381836040517fe450d38c00000000000000000000000000000000000000000000000000000000815260040161111c939291906117b5565b60405180910390fd5b8181036000808673ffffffffffffffffffffffffffffffffffffffff1673ffffffffffffffffffffffffffffffffffffffff16815260200190815260200160002081905550505b600073ffffffffffffffffffffffffffffffffffffffff168273ffffffffffffffffffffffffffffffffffffffff16036111b55780600260008282540392505081905550611202565b806000808473ffffffffffffffffffffffffffffffffffffffff1673ffffffffffffffffffffffffffffffffffffffff168152602001908152602001600020600082825401925050819055505b8173ffffffffffffffffffffffffffffffffffffffff168373ffffffffffffffffffffffffffffffffffffffff167fddf252ad1be2c89b69c2b068fc378daa952ba7f163c4a11628f55a4df523b3ef8360405161125f919061143c565b60405180910390a3505050565b600081519050919050565b600082825260208201905092915050565b60005b838110156112a657808201518184015260208101905061128b565b60008484015250505050565b6000601f19601f8301169050919050565b60006112ce8261126c565b6112d88185611277565b93506112e8818560208601611288565b6112f1816112b2565b840191505092915050565b6000602082019050818103600083015261131681846112c3565b905092915050565b600080fd5b600073ffffffffffffffffffffffffffffffffffffffff82169050919050565b600061134e82611323565b9050919050565b61135e81611343565b811461136957600080fd5b50565b60008135905061137b81611355565b92915050565b6000819050919050565b61139481611381565b811461139f57600080fd5b50565b6000813590506113b18161138b565b92915050565b600080604083850312156113ce576113cd61131e565b5b60006113dc8582860161136c565b92505060206113ed858286016113a2565b9150509250929050565b60008115159050919050565b61140c816113f7565b82525050565b60006020820190506114276000830184611403565b92915050565b61143681611381565b82525050565b6000602082019050611451600083018461142d565b92915050565b6000806000606084860312156114705761146f61131e565b5b600061147e8682870161136c565b935050602061148f8682870161136c565b92505060406114a0868287016113a2565b9150509250925092565b600060ff82169050919050565b6114c0816114aa565b82525050565b60006020820190506114db60008301846114b7565b92915050565b6000602082840312156114f7576114f661131e565b5b6000611505848285016113a2565b91505092915050565b6000602082840312156115245761152361131e565b5b60006115328482850161136c565b91505092915050565b61154481611343565b82525050565b600060208201905061155f600083018461153b565b92915050565b6000806040838503121561157c5761157b61131e565b5b600061158a8582860161136c565b925050602061159b8582860161136c565b9150509250929050565b7f4e487b7100000000000000000000000000000000000000000000000000000000600052602260045260246000fd5b600060028204905060018216806115ec57607f821691505b6020821081036115ff576115fe6115a5565b5b50919050565b7f556e70617573696e67206973206e6f7420616c6c6f7765640000000000000000600082015250565b600061163b601883611277565b915061164682611605565b602082019050919050565b6000602082019050818103600083015261166a8161162e565b9050919050565b7f4d696e74696e67206973206e6f7420616c6c6f77656400000000000000000000600082015250565b60006116a7601683611277565b91506116b282611671565b602082019050919050565b600060208201905081810360008301526116d68161169a565b9050919050565b7f4275726e696e67206973206e6f7420616c6c6f77656400000000000000000000600082015250565b6000611713601683611277565b915061171e826116dd565b602082019050919050565b6000602082019050818103600083015261174281611706565b9050919050565b7f50617573696e67206973206e6f7420616c6c6f77656400000000000000000000600082015250565b600061177f601683611277565b915061178a82611749565b602082019050919050565b600060208201905081810360008301526117ae81611772565b9050919050565b60006060820190506117ca600083018661153b565b6117d7602083018561142d565b6117e4604083018461142d565b949350505050565b7f4e487b7100000000000000000000000000000000000000000000000000000000600052601160045260246000fd5b600061182682611381565b915061183183611381565b9250828201905080821115611849576118486117ec565b5b9291505056fea2646970667358221220bae26d5a17fb3951586c2bc500b8e699456b1f734daf9347ecf01b531a862cdc64736f6c63430008140033",
  "linkReferences": {},
  "deployedLinkReferences": {}
}